:10000000D8EF01F09486948800EF02F0EA6A0D0EB2
:10001000E96EEF500DE0060E016E006A002EFED76D
:10002000012EFBD77B0E006E002EFED7EF2EF3D7EE
:100030001200EACF14F0E9CF13F00DAE08D0138E02
:1000400013A8132A0C1E0D1E0C2AD8B40D2A0D3825
:10005000F0090F6E0F26E20F106E320F126E0D5068
:100060000F0B102610261226E90F116E11261126ED
:100070000C380F0B1126122611361236121E1236AC
:100080000C500F0B12260F36070E0E6E0A0E1106BD
:100090001226FDE310061126FDE30F061026FDE3F0
:1000A0000E060F26FDE3EA6A0E0EE96E070E131424
:1000B000139CE906131407E113B8E92A13B803D017
:1000C000200E006E1CD0E926120EE95CD8B4138C09
:1000D000EF50006E08E113BC06D013B814D013B66D
:1000E00002D0200E0BD013AE06D02D0E006EED50B8
:1000F000139C139E04D013861398300E00260050D4
:100100009EA8FED7AD6EEE5013ACDED71200080EDF
:10011000016E050E006E002EFED78B969496060E8D
:10012000006E002EFED710368B98D8B09488D8A0D9
:100130009498948682A6FED7012EEBD7050E006E0A
:10014000002EFED78B96949600009488060E006EC3
:10015000002EFED7060E006E002EFED7948682A6D5
:10016000FED7016A060E006E002EFED782B801800F
:100170008B9694968B98949812009488050E006E36
:10018000002EFED79486060E006E002EFED78B98AA
:100190009498050E006E002EFED78B969496A00EB6
:1001A000106EB5DF01500F9001B00F8094980000E1
:1001B000948682A6FED7050E006E002EFED700D0D4
:1001C00000009488050E006E002EFED7000E0FA0D2
:1001D000010E016E1200D1DF0152FDE09488050E80
:1001E000006E002EFED79486060E006E002EFED7FF
:1001F0008B989498050E006E002EFED78B969496E1
:100200000D30036E0C30026E0332023203320232C2
:10021000033202320332023203320232033202323A
:10022000010E03160250A009FE0B0F6E106E6FDF59
:100230000CC010F06CDF0EC010F069DF9498000065
:10024000948682A6FED7050E006E002EFED700D043
:1002500000009488050E006E002EFED734EF02F0E9
:10026000080E106E00C011F09488060E006E002E6D
:10027000FED7948682A6FED782B8D88082A8D8906E
:100280000136050E006E002EFED794968B96102E2A
:10029000EBD79488060E006E002EFED78B98115077
:1002A000D8A494980000948682A6FED7050E006E0E
:1002B000002EFED78B969496060E006E002EFED76B
:1002C0008B989498C2EF01F058DF0152FDE09488BA
:1002D000050E006E002EFED79486060E006E002ED0
:1002E000FED78B989498050E006E002EFED78B9645
:1002F00094960D30036E0C30026E033202320332DC
:100300000232033202320332023203320232033249
:100310000232010E03160250A009FE0B0F6E106E82
:10032000F6DE0CC010F0F3DE9488050E006E002E91
:10033000FED79486060E006E002EFED782A6FED74C
:100340008B989498050E006E002EFED78B9694968F
:100350000D30036E0C30026E033202320332023271
:1003600003320232033202320332023203320232E9
:10037000010E03160250A00901090F6E106EC7DEB0
:10038000006A6ED701C00EF094980000948682A691
:10039000FED7050E006E002EFED700D00000948818
:1003A000050E006E002EFED70EC001F07DEF02F0AC
:1003B000F86AD09E810EAF6EA60EAC6E900EAB6E3C
:1003C000096A086AC180C182C184C196C190C18294
:1003D000C184C186C18CC28CC29EC19EC280000EE7
:1003E000016EC250C70B0110C26E000E0609CA6E24
:1003F000FF0ECB6E94948B940C0EBD6EBE6A02D62B
:1004000081A25ED095908C80040E0C6EFA0E0D6E5B
:10041000FDDD0C2EFBD795908C90076A066A07527B
:1004200043E10650310840E3C284C2B4FED7096AF2
:10043000C4CF08F007C00BF006C00AF0200E9EA83B
:10044000FED7AD6E100EE96E09C00DF008C00CF0BD
:10045000F0DD0A0E9EA8FED7AD6E0BC00DF00AC0EF
:100460000CF008C00EF0B7D6083609360836093643
:10047000FC0E081609C002F008C001F00232013279
:1004800002320132023201C0BEFF02320230300BB2
:10049000006EBD50CF0B0010BD6E640E0D6EB6DD4C
:1004A000062AD8B4072ABBD7BE6A95908C80040E62
:1004B0000C6EFA0E0D6EAADD0C2EFBD795908C906B
:1004C00081A059D095928C82040E0C6EFA0E0D6E9E
:1004D0009DDD0C2EFBD795928C92076A066A075217
:1004E0003EE1065031083BE307C00BF006C00AF0BE
:1004F0000BC00DF00AC00CF0E7D6056A01C004F08D
:10050000200E9EA8FED7AD6E100EE96E05C00DF050
:1005100004C00CF08EDD0A0E9EA8FED7AD6E043628
:10052000053604360536FC0E041605C002F004C07C
:1005300001F00232013202320132023201C0BEFF4A
:1005400002320230300B006EBD50CF0B0010BD6E7A
:10055000640E0D6E5BDD062AD8B4072AC0D7BE6ACA
:1005600095928C82040E0C6EFA0E0D6E4FDD0C2EE1
:0A057000FBD795928C9244D703004C
:020000040030CA
:0E00000000220C0E000181000FC00FE00F4027
:00000001FF
;PIC18F452
;CRC=8E34  CREATED="04-dez-19 17:24"
